:020000040000FA
:040000008031102813
:100008007E1480310B1F0E282E009A18901C0E2883
:100018008031DB207E100900803112287E102000FC
:100028008031F8282000960197019801F03091005E
:10003800FF309200FF309300DF303E00CE00FF30EB
:10004800C300FF30B800E501C401B901CF01BA010E
:10005800C501D001FF30BB00FF30C600FF30D10022
:10006800FF30BC00FF30C700FF30D2000830E80086
:1000780015303D009D000E303E0093000E3091007B
:100088000E3092000E309000080022008E018F0181
:1000980090019101920193018D0121009E019B0124
:1000A8009C0194019501960197019A019901980183
:1000B800943093009D0108000130250090008F01C5
:1000C8009101FF308D008C012E0090109A14B130F0
:1000D8002000A0000030A1008031FE20F030250073
:1000E8008E0008007108F3007008F200F336F20C75
:1000F800F336F20C720827008D0070080339F200FD
:100108000530F235FF3E031D852872358C00080046
:100118008031F02080318031162080318031E72015
:1001280080318031CE20803180314920803180314A
:10013800C0208031803160200800F300730821005E
:100148009E00931713131314000021001318A928F5
:100158000D08F1000C08F000080004308031A120DF
:1001680080317108F5007008F4007508F100740812
:10017800F0008031762008000130250096009501B6
:100188009701FF30930092012E00901180302500D6
:1001980094000800803027008E007F308D00C0302A
:1001A8008C0024001F08F33908389F0008002E002F
:1001B8009010760877040319080077088A007608F3
:1001C8000A0080310800623031008D008F019101F2
:1001D80002309300920108002F00960197019801C0
:1001E80099019A019B01080080318C2080318B177E
:1001F8000B17FD2820002108F7002008F60008004A
:020000040001F9
:0A000E00EC3FFF3F9F3FFF3FFF3F25
:00000001FF
