:020000040000FA
:0400000080311E2805
:100008007E1480310B1F1C282E00191A0F1E13286E
:1000180021004D088A004C080A0080311C28991AD2
:100028008F1E1C2821004B088A004A080A008031CC
:100038007E10090080312028FC012000EF01A0304B
:1000480084000030850024308731412780312030FA
:100058008400013085002030873141277E10200040
:1000680085314D2D2000BE003108C5003208C6007C
:100078003308C7003408C8003508C9003608CA0064
:100088003708CB003808CC004530860000308700A0
:10009800473FB900B91F52280130532800302000CB
:1000A800BA00BB013A08C3003B08C4004308440433
:1000B80003197C28C509C609C709C809C909CA0995
:1000C800CB09CC09C50A031D7C28C60A031D7C2858
:1000D800C70A031D7C28C80A031D7C28C90A031DFA
:1000E8007C28CA0A031D7C28CB0A031D7C28CC0A5D
:1000F8002100BD1B8328FD30BE05FF30BF053D082C
:10010800803A2000B90080303902031D8E28013062
:1001180021003C020318962801302000BF0000305F
:10012800C0009E2821003D082000C00021003C0896
:100138002000BF0021003B082000C20021003A082F
:100148002000C10043084404031DAD2821003E1DC2
:10015800B228FF302000C107FF30C23D1F30200009
:10016800CD000030CE002200BF01482920004508FC
:1001780046044704480449044A044B044C04031D3C
:10018800DF284008803AB90080303902031DCE28A4
:1001980001303F020318DF2820004208803AB900E6
:1001A80080303902031DDA2801304102031C54292A
:1001B8002100BE1C5429FF302000CD07FF30CE3D62
:1001C8000A30A000A101A201A301A401A501A60172
:1001D800A7014508A8004608A9004708AA0048083A
:1001E800AB004908AC004A08AD004B08AE004C080B
:1001F800AF0083317A23803120002108F5002008E0
:10020800F4008631E32680317408303E2000B900BE
:100218004D08203E86000130870039088100FF30F4
:10022800BF07FF30C03DFF30C107FF30C23D0A3075
:10023800A000A101A201A301A401A501A601A70193
:100248004508A8004608A9004708AA004808AB00C6
:100258004908AC004A08AD004B08AE004C08AF0096
:1002680082318722803120002008C5002108C6007D
:100278002208C7002308C8002408C9002508CA00A6
:100288002608CB002708CC0020004E08803AB90089
:1002980080303902031D522901304D020318BA2853
:1002A800200043084404031D5C2921003E1D7429D5
:1002B800FF302000CD07FF30CE3D43084404031D26
:1002C80067292B3068292D30BC000030BD003C0860
:1002D800B9004D08203E86000130870039088100AA
:1002E80020004D08203EB9003908A8004208AA009D
:1002F8004108A9003E088431562420002908B2008C
:100308002808B10008002000DF004F088600870198
:10031800403FD100413FD200510884005208850077
:100328001200253A031D642A4F0886008701013010
:10033800810741310318810A2100BA01BB01BE01BE
:10034800BF01FF30BC00FF30BD0020004F08860011
:100358008701403FD100413FD20051088400520834
:1003680085001200633A031DDA294F0886008701C9
:100378000130810741310318810A5008860087013E
:10038800010884008501023081070008D100510866
:10039800DE005E08D1005108B1005F0885317D2577
:1003A80020003208D0003108CF0008004F0886002E
:1003B8008701403FD100413FD200510884005208D4
:1003C80085001200643A0319F8294F08860087014E
:1003D800403FD100413FD2005108840052088500B7
:1003E8001200693A031D322A4F088600870101303E
:1003F800810741310318810A5008860087010108E6
:100408008400850102308107003FD100013FD200FE
:100418005108D6005208D700890D893B8909D800B0
:10042800D900DA00DB00DC00DD005608B10057080F
:10043800B2005808B3005908B4005A08B5005B0860
:10044800B6005C08B7005D08B8005F088031362048
:1004580020003208D0003108CF0008004F0886007D
:100468008701403FD100413FD20051088400520823
:1004780085001200253A031D592A4F088600870176
:100488000130810741310318810A2530F40000301A
:10049800F5005F08D1005108F6008431E6240130E8
:1004A8002000CF000030D00008004F0886008701E8
:1004B8000130810741310318810ACF01D0010800BA
:1004C8004F0886008701403FD100413FD2005108C4
:1004D8008400520885000008D300D4015308F400B2
:1004E8005408F5005F08D5005508F6008431E62465
:1004F800813120004F088600870101308107413192
:100508000318810A532AF30120308600003087003F
:10051800473FF100F11FB12A2000A009A109A20953
:10052800A309A409A509A609A709A00A031DAF2ABA
:10053800A10A031DAF2AA20A031DAF2AA30A031D9D
:10054800AF2AA40A031DAF2AA50A031DAF2AA60ACB
:10055800031DAF2AA70AF301F30A283086000030EA
:100568008700473FF100F11FDC2A2000A809A909EC
:10057800AA09AB09AC09AD09AE09AF09A80A031D60
:10058800D82AA90A031DD82AAA0A031DD82AAB0A01
:10059800031DD82AAC0A031DD82AAD0A031DD82A80
:1005A800AE0A031DD82AAF0A0130F1007108F3061C
:1005B80074308600003087000830F10000301E00DB
:1005C800F10BE32A20002008210422042304240438
:1005D8002504260427040319472BF201F20AA71B56
:1005E800022BA035A10DA20DA30DA40DA50DA60DDE
:1005F800A70D0130F1007108F207F32AF435F50D63
:10060800F60DF70DF80DF90DFA0DFB0D27082F0261
:10061800031D282B26082E02031D282B25082D0232
:10062800031D282B24082C02031D282B23082B022A
:10063800031D282B22082A02031D282B2108290222
:10064800031D282B20082802031C3B2B2008A80286
:100658002108A93B2208AA3B2308AB3B2408AC3B52
:100668002508AD3B2608AE3B2708AF3B7414A736D8
:10067800A60CA50CA40CA30CA20CA10CA00C013078
:10068800F202031D022B73080319682BF409F509FC
:10069800F609F709F809F909FA09FB09F40A031D2B
:1006A800682BF50A031D682BF60A031D682BF70A49
:1006B800031D682BF80A031D682BF90A031D682B14
:1006C800FA0A031D682BFB0A74082000A0007508AD
:1006D800A1007608A2007708A3007808A40079088A
:1006E800A5007A08A6007B08A7000800F3012830B7
:1006F800860000308700473FF100F11FA42B20003F
:10070800A809A909AA09AB09AC09AD09AE09AF093D
:10071800A80A031DA22BA90A031DA22BAA0A031DBE
:10072800A22BAB0A031DA22BAC0A031DA22BAD0AF8
:10073800031DA22BAE0A031DA22BAF0AF301F30A75
:100748002030860000308700473FF100F11FCB2B97
:100758002000A009A109A209A309A409A509A609BD
:10076800A709A00A031DCB2BA10A031DCB2BA20AA4
:10077800031DCB2BA30A031DCB2BA40A031DCB2BD4
:10078800A50A031DCB2BA60A031DCB2BA70A200005
:100798002008210422042304240425042604270411
:1007A8000319232CF201F20AA71BE72BA035A10D90
:1007B800A20DA30DA40DA50DA60DA70D0130F100E6
:1007C8007108F207D82B27082F02031D052C2608CD
:1007D8002E02031D052C25082D02031D052C2408B7
:1007E8002C02031D052C23082B02031D052C2208AF
:1007F8002A02031D052C21082902031D052C2008A7
:100808002802031C172C2008A8022108A93B22084B
:10081800AA3B2308AB3B2408AC3B2508AD3B260884
:10082800AE3B2708AF3BA736A60CA50CA40CA30C1F
:10083800A20CA10CA00C0130F202031DE72B7308D7
:100848000319442CA809A909AA09AB09AC09AD09DF
:10085800AE09AF09A80A031D442CA90A031D442C9C
:10086800AA0A031D442CAB0A031D442CAC0A031D21
:10087800442CAD0A031D442CAE0A031D442CAF0AB8
:1008880020002808A0002908A1002A08A2002B0897
:10089800A3002C08A4002D08A5002E08A6002F08E8
:1008A800A70008002000B00021003E1C642C200096
:1008B8003008AB002B08A000280886313026843188
:1008C8002000AA1B6C2C2A08AF002908AE006E2C49
:1008D800AE01AF01AC01AD012D08803AAB002F0885
:1008E800803A2B02031D7A2C2E082C0203188E2C1A
:1008F8002030F4000030F50020003008AB002B0851
:10090800F6008431E624843101302000AC07003041
:10091800AD3D702C21003E189A2C20003008AB0009
:100928002B08A000280886313026843120002808AA
:100938008631B42620002E087107A8002F08723DC2
:10094800A90008002E0099121B30F1000530F200B2
:1009580087314D2784312E0019129730F100063067
:10096800F200873147278431083022009F009030F9
:100978009D0024309E0019309B009C017430F100CA
:100988000730F2008731592784316A30F100073087
:10099800F2008731532784317130F1000730F200BB
:1009A80087315F272100C001C301C2010830F3006D
:1009B8007308CE00FC012000EF012100C1012E00C8
:1009C800991608007608031D7608031DEF2C740895
:1009D8008731652708007608033E860087011600E0
:1009E80001040319122D7608033E86008701403F53
:1009F800F700413FF800760A86008701403FF9007A
:100A0800413FFA007A08803AFB007808803A7B0276
:100A1800031D102D7708790203180800760A86004E
:100A280087010130810741310318810A08007C08D9
:100A3800A03E86008701810122001D1D2E2D7C0805
:100A4800A03E860087018114210049088A004808D1
:100A58000A00853122009D1C3C2D7C08A03E8600A2
:100A680087010115210047088A0046080A008531D8
:100A78007C08A03E86008701010803194A2D210041
:100A880045088A0044080A00853108008631FA269C
:100A980008008731242785318B170B17CC302000AD
:100AA800E8008630E90087311127853187316E27C4
:100AB80085312100D2005208D60079302000E800A4
:100AC8008630E90021005608D200D30152082000E0
:100AD800EA00210053082000EB0021005608D4004A
:100AE800D50154082000EC00210055082000ED0035
:100AF800572D2000B60021003A083B04031D8C2D19
:100B08003B082000B50021003A082000B400952DCC
:100B18003A08FF3E2000B400FF3021003B3D200092
:100B2800B5003108B30033082200A000A10120302D
:100B38002000B3003308A8003508AA003408A9002B
:100B480036088431562420002908B2002808B1004C
:100B580008002000E5006108E7006008E6002100C1
:100B6800B801B901200066088400670885001200F2
:100B78000319D32D6630E3006308CF006208E40050
:100B88006408D000650881318721853120004F082D
:100B98002100B807200050082100B93DB62D2100DA
:100BA80039082000E100210038082000E000080092
:100BB8002000960197019801FF309100FF309200C4
:100BC800FE309300FD303E00CE00FF30C300FF3002
:100BD800B800E501C401B901CF01BA01C501D001CE
:100BE800FF30BB00FF30C600FF30D100FF30BC0033
:100BF800FF30C700FF30D2000830E8001030A000F6
:100C080011303D00CB000800210041080319082ECF
:100C180020006F08A03E860087010108F1007108D6
:100C28002100C00020006F08A83E86008701010847
:100C3800F1007108F2000130F1007108EF07083087
:100C48006F020318EF012E00991201302100C10232
:100C58002E009916720808002000A700A501A60119
:100C680025082707A1002108860001308700010810
:100C7800A2002208A4002408031908002408A100DF
:100C8800A2012108F4002208F5002008A300230887
:100C9800F6008431E624863101302000A5070030B3
:100CA800A63D342EF20021004E080319572E2E00BF
:100CB800191A622E720822009A00762E19127208EA
:100CC800F10021004308B03E8600870171088100C9
:100CD8000130F1007108C307083043020318C3014B
:100CE8000130CE022E001916080045346C34203429
:100CF8006334F3346434693467346F3420344134F2
:100D0800533443344934493420346434653420340A
:100D18002534633420346534733420342534643402
:100D280020340A340034083021004E020318B12E52
:100D38004208B03E86008701010822009A0001306F
:100D4800F00070082100C207083042020318C201EF
:100D58000130F0007008CE0708002E0019120800B4
:100D6800F5007508F3007308F40075088600013073
:100D7800870001080319C52E0130F3007308F50731
:100D8800B92E74087502F100F201F11BF203080094
:100D98000A342034503452344F34473452344134B6
:100DA8004D344134203444344534203445344A34B5
:100DB80045344D3450344C344F340A3400347508BB
:100DC800803AF60080307602031DEC2E0130740262
:100DD800031808007409F6007509F700F60A0319E4
:100DE800F70A7608F4007708F500080022001908C9
:100DF800F0007C08A83E8600870170088100013059
:100E0800F0007008FC0708307C020318FC01013070
:100E1800F00070082100C10708006A302000EE00C9
:100E28006E082100D10020006908E1006808E00090
:100E3800D130EE006E08E20000308531AD250800A3
:100E48008731392787318531DC258731873130274C
:100E580087318431A6240800623031008D008F016B
:100E6800910102309300920108002F00960197012A
:100E7800980199019A019B010800640080010131E1
:100E8800890B422F003472082100CD007108CC0074
:100E9800080072082100CB007108CA000800720817
:100EA8002100C7007108C600080072082100C900A7
:100EB8007108C800080072082100C5007108C40044
:100EC8000800F300730886315626080022001D1218
:100ED8001D1608008631082608008631FA26080003
:020EE800080000
:020000040001F9
:0A000E00EC3FFF3F9F3FFF3FFF3F25
:00000001FF
