:0400000080312428FF
:100008007E14803120007F08FD000B1F1F282E0062
:10001800991A8F1E13289331BE2380311F289919EE
:100028008F1D1A2893310D2380311F2819190F1D90
:100038001F288B311C237D082000FF007E1009003B
:1000480080312628F001F101F201F301F401F501F4
:10005800F6012000EF01C83084000030850024300C
:1000680093311D237E10200089314E2969302100EB
:10007800A0002008A900200068082100A100200095
:1000880067082100A0002000E70A0319E80A2100F8
:1000980020088400210885000008A2002208BD006D
:1000A8003D080319080025303D06031960283D085E
:1000B8009331172380313F282100AC01AD01AA01FB
:1000C800AB012000670884006808850000089331A8
:1000D80048238031031CAB282100AC01AD010A3054
:1000E8002000B0000030B10021002D082000B3002E
:1000F80021002C082000B2009331D8238031200041
:1001080031082100AD00200030082100AC0020009B
:1001180067088400680885000008D03E2100A00018
:10012800FF3003180030A1002008AC072108AD3DBE
:1001380001302000E7070030E83D670884006808C0
:100148008500000893314823803103187328200064
:10015800670884006808850012002E3A031DF728F6
:1001680021002B1701302000E7070030E83D21006F
:10017800BB01BC01200067088400680885000008EE
:10018800933148238031031CFE282000670884002F
:100198006808850000082100A000A1013C08200093
:1001A800B10021003B082000B0000A30B200003046
:1001B800B3009331D8238031210020082000300774
:1001C8002100A20021082000313D2100A3002208BF
:1001D800D03EBB00FF30233DBC0001302000E707C4
:1001E8000030E83DBE282100BB01BC012B16FE28CB
:1001F8002B151E29200068082100A100200067088F
:100208002100A0002000E70A0319E80A21002008BD
:100218008400210885000008BD00003A0319CB2E90
:10022800643A03191E29023A0319FC280F3A0319E4
:100238001E293F2800302A05A00007302B05A10001
:100248002008210403197D2D2B1E2E290630BB0002
:100258000030BC00290886008701403FB800413FB4
:10026800B900423FBA000330A0002008A9073808A7
:100278002000A000210039082000A10021003A0830
:100288002000A2000030A3000030A4000030A50028
:1002980095312A258031031870292100380820005B
:1002A800A000210039082000A10021003A08200000
:1002B800A20093312B238031200020082100B800B0
:1002C800200021082100B900200022082100BA00DE
:1002D8000330AA040030AB042100B601B7013A0884
:1002E8003904380403193E2AB83086008701403F94
:1002F800A000413FA100423FA200433FA3000F30AE
:10030800A336A20CA10CA00C890B8429FF30200570
:10031800A40000302105A5002408823EB600FF3065
:10032800253DB700FF30B607FF30B73D033020004A
:10033800B0000030B100210037082000B3002100D0
:1003480036082000B2009331D823803120003108CC
:100358002100B700200030082100B6000A30200034
:10036800A7000030A800210037082000AA002100BB
:1003780036082000A9009531EF2580312000280893
:100388002100B700200027082100B600B71FD02998
:10039800FF30B607FF30B73D3603FF3A8D31BA2537
:1003A8008031200046082100AE00200047082100C7
:1003B800AF00200048082100B00038082000B6002F
:1003C800210039082000B70021003A082000B800B1
:1003D80021002E082000B90021002F082000BA00B3
:1003E800210030082000BB0097314C2780312000C5
:1003F80036082100AE00200037082100AF00200099
:1004080038082100B0002E082000A00021002F0885
:100418002000A100210030082000A2000030A30025
:100428008030A4003F30A50095312A25803103187B
:10043800222AFF302100B607FF303D2A21002E086E
:100448002000A00021002F082000A1002100300872
:100458002000A2000030A3002030A4004130A500F5
:1004680095312A258031031C3E2A01302100B60728
:100478000030B73D21003C08803AA00080302002BF
:10048800031D482A0D303B020318712A21003B083E
:100498008C315424803120004608D4004708D50008
:1004A8004808D600210038082000D7002100390864
:1004B8002000D80021003A082000D9008A312622DD
:1004C8008031200054082100B80020005508210080
:1004D800B900200056082100BA0021003708803AE8
:1004E800A00080302002031D7B2A0A303602031840
:1004F800A42A21003A08390438040319032B3808C0
:100508002000CF00210039082000D00021003A083F
:100518002000D10088311120803120005208510478
:1005280050044F04031D032B21003708803AA00014
:1005380080302002031DA22A02303602031C032B3E
:1005480021002E082000A00021002F082000A10073
:10055800210030082000A2007030A3008930A400D8
:100568004030A50095312A2580310318BD2AF7307F
:10057800BE2AF8302100B607FF30B73D36088D3166
:10058800BA258031200046082100AE002000470827
:100598002100AF00200048082100B00038082000E2
:1005A800A000210039082000A10021003A082000FD
:1005B800A20021002E082000A30021002F082000FF
:1005C800A400210030082000A5008831982080313F
:1005D800200023082100B500200022082100B400D3
:1005E800200021082100B300200020082100B200CB
:1005F8000030B8000030B9000030BA00582B210094
:1006080038082000CF00210039082000D000210040
:100618003A082000D100883111208031200052088A
:100628002100B500200051082100B4002000500826
:100638002100B30020004F082100B2003508200037
:10064800AB00210034082000AA0021003308200054
:10065800A900210032082000A80094319524803197
:1006680020002808E1002908E2002A08E300210008
:1006780038082000E400210039082000E5002100A6
:100688003A082000E60094312F24803120006108C8
:100698002100B800200062082100B900200063088A
:1006A8002100BA00B601B701BD01BD0A0A303D06F6
:1006B80003198B2B3D08A000A101A035A10DA03581
:1006C800A10D7030200784009830213D8500003F3F
:1006D800A200013FA300023FA400033FA500250894
:1006E8003502031D812B24083402031D812B2308A6
:1006F8003302031D812B22083202031C8B2B01308D
:10070800A0002008BD070A303D06031D5E2B3D08EA
:10071800A000A101A01BA1033B082007A2003C08E0
:10072800213DA30036082207A4003708233DA50071
:100738002408AC022508AD3B3B083C040319A82B50
:10074800FF30AC07FF30AD3D03302A05A000003074
:100758002B05A100200821040319B62BFF30AC0794
:10076800FF30AD3D2D08803AA00080302002031DE7
:10077800BF2B01302C02031CC82B203093311723C8
:100788008031FF302100B32B033021002A05A0005F
:1007980000302B05A100200821040319D72B2D3088
:1007A800933117238031FF302100A0002008BD07B6
:1007B8003D0A0319512C21003D08A000A101A035D4
:1007C800A10DA035A10D7030200784009830213D7F
:1007D8008500003F2000A000013FA100023FA200C9
:1007E800033FA300210035082000A700210034089A
:1007F8002000A600210033082000A50021003208AF
:100808002000A4009631942680312000230821007E
:10081800B100200022082100B0002000210821009A
:10082800AF00200020082100AE0000302000B100F9
:100838000030B0000030AF000A30AE0021003108AF
:100848002000B500210030082000B40021002F0846
:100858002000B30021002E082000B2009531662543
:100868008031200031082100B1002000300821002B
:10087800B00020002F082100AF0020002E08210022
:10088800AE002E08303ED42B303093311723803100
:10089800FF302100B607FF30B73D3708803AA00087
:1008A80080302002031D5A2C013036020318482CD0
:1008B80021003C08803AA00080302002031D662CED
:1008C80009303B02031C6B2C083021006D2C2100E1
:1008D8003B08A0002008BD003D08A000A101A01B06
:1008E800A1032008BB022108BC3B3D080319802C4A
:1008F8002E3093311723803121003D088D31BA25E0
:100908008031200046082100A60020004708210069
:10091800A700200048082100A80026082000B900E8
:10092800210027082000BA00210028082000BB0069
:10093800210038082000B600210039082000B7003F
:1009480021003A082000B80097314C278031200058
:100958003608CF003708D0003808D1008831112078
:100968008031200052082100B500200051082100E4
:10097800B400200050082100B30020004F082100D7
:10098800B200FF30A0002008BD073D0A0319782DEA
:100998003D08A000A101A035A10DA035A10D703022
:1009A800200784009830213D8500003F2000A000EA
:1009B800013FA100023FA200033FA3002100350828
:1009C8002000A700210034082000A60021003308D9
:1009D8002000A500210032082000A40096319426AA
:1009E8008031200023082100B100200022082100C6
:1009F800B000200021082100AF00200020082100BD
:100A0800AE0000302000B1000030B0000030AF0070
:100A18000A30AE00210031082000B500210030085E
:100A28002000B40021002F082000B30021002E0868
:100A38002000B20095316625803120003108210060
:100A4800B100200030082100B00020002F0821004C
:100A5800AF0020002E082100AE002E08303E933152
:100A68001723803121003D08A000A101A035A10D68
:100A7800A035A10D7030200784009830213D8500F5
:100A8800003F2000AE00013FAF00023FB000033F2F
:100A9800B100210035082000B500210034082000ED
:100AA800B400210033082000B300210032082000E0
:100AB800B200953166258031200031082100B5004B
:100AC800200030082100B40020002F082100B300C6
:100AD80020002E08C32C3030933117238031FF308B
:100AE8002100BB07FF30BC3D3B083C0403193F28ED
:100AF8006F2D290886008701403FA000413FA100D3
:100B08002008B2002108B300890D893B8909B40087
:100B1800B5000230A0002008A907B51FA22D033098
:100B2800AA040030AB04B209B309B409B509B20A82
:100B38000319B30A0319B40A0319B50A3B083C049C
:100B4800031DB02D3508340433043204031DB02DC1
:100B58000130BB070030BC3DBD01BD0A0A303D066F
:100B68000319E32D3D08A000A101A035A10DA03572
:100B7800A10D7030200784009830213D8500003F8A
:100B8800A200013FA300023FA400033FA5002508DF
:100B98003502031DD92D24083402031DD92D23083D
:100BA8003302031DD92D22083202031CE32D013024
:100BB800A0002008BD070A303D06031DB62D3D08DC
:100BC800A000A101A01BA1032108803AA2003C08B3
:100BD800803A2202031DF22D3B0820020318FA2D49
:100BE80021003B08A0002008BD00122E21003D086E
:100BF800A000A101A01BA1033C08803AA200210883
:100C0800803A2202031D0A2E20083B020318122EE6
:100C180021003D08BB00BC01BB1BBC0321002C0804
:100C28002D040319252E03302A05A00000302B05BA
:100C3800A100200821040319252EFF30AC07FF303E
:100C4800AD3D2B1F3C2E3C08803AA0002D08803A71
:100C58002002031D312E2C083B020318392E2100D7
:100C68003B08AC023C08AD3B3C2E2100AC01AD0179
:100C78003D08A000A101A01BA1032108803AA20001
:100C88002D08803A2202031D4B2E2C08200203183F
:100C9800582E21003D08A000A101A01BA103200897
:100CA800AC022108AD3B5B2E2100AC01AD012C0844
:100CB8002D0403196C2E2030933117238031FF3017
:100CC8002100AC07FF30AD3D2C082D04031D5F2E1D
:100CD80003302A05A00000302B05A10020082104BC
:100CE80003197A2E2D30933117238031FF302100DC
:100CF800BB07FF30BC3D3B0A03193C0A03193F28D8
:100D080000302000B1000030B0000030AF000A30E1
:100D1800AE0021003C0885003B0884008435850D21
:100D28008435850D703084079830853D003F20005C
:100D3800A000013FA100023FA200033FA300210041
:100D480035082000A700210034082000A600210053
:100D580033082000A500210032082000A4009631A5
:100D68009426803120002308B5002208B400210809
:100D7800B3002008B20095316625803120002E0886
:100D8800303E2100A0002008BD003D08772E080055
:100D9800203086008701403F2000A600413FA70081
:100DA800423FA800433FA9000310280D290DAA00BF
:100DB8002A08B3003308031DEA2E0030A3000030D0
:100DC800A2000030A1000030A000080023308600F7
:100DD8008701403FA600413FA700423FA800433F8C
:100DE800A9000310280D290DAA002A08B20032080C
:100DF800031D072F0030A3000030A2000030A1001F
:100E08000030A000080020308600870100308104EF
:100E1800413100308104413180308104413100305A
:100E28008104203086008701FF3081054131FF3081
:100E380081054131FF308105413100308105233082
:100E4800860087010030810441310030810441313E
:100E580080308104413100308104233086008701CD
:100E6800FF3081054131FF3081054131FF30810577
:100E78004131003081050030B1000030B000003051
:100E8800AF000030AE007F30B302A0303207A600BA
:100E98002608B3022030A6002608B2000130AE357D
:100EA800AF0DB00DB10D890B532F2330860087018C
:100EB800403FA600413FA700423FA800433FA9008A
:100EC800203086008701403FAA00413FAB00423FE7
:100ED800AC00433FAD0029082D02031D7D2F2808D3
:100EE8002C02031D7D2F27082B02031D7D2F2608AA
:100EF8002A02031C9A2F233086008701403FA60050
:100F0800413FA700423FA800433FA9002030860088
:100F180087012608810241312708813B4131280891
:100F2800813B41312908813B7D312E1420308600D8
:100F3800870181354131810D4131810D4131810D6B
:100F48007D310130B202031D522FB31FC72F330862
:100F5800803A9F3E0318B92F0030A3000030A2004A
:100F68000030A1000030A00008000130B136B00CFC
:100F7800AF0CAE0C890BBA2F0130A6002608B307B8
:100F88000319E02FB92F20303302031CDD2F003066
:100F9800A3000030A2000030A1000030A00008002B
:100FA8000130AE35AF0DB00DB10D890BD52F013025
:100FB800B3023308031DD42F3108A3003008A20060
:100FC8002F08A1002E08A0000800F80023001B1518
:100FD8007008023E8600870101080319FE2F780871
:100FE800F7007008023E8600870101088600870125
:100FF80077088100F20108000430F7007708F1074C
:1010080001302100D802031D0E280430F7007708AC
:10101800F2000800F201F20A080020004F08D3008D
:101028005008D4005108D5000310540D550DD600B2
:101038005608DC005C08031D2A280030D200003066
:10104800D1000030D0000030CF0008004F08D30096
:101058005008D4005108D5001730D536D40CD30C1D
:10106800890B31285308D6005608D700D017FF300F
:10107800CF05FF30D0050030D1054F08D800500803
:10108800D9005108DA00DB018E30DC02DC1F682849
:101098005C08803A8F3E03185A280030D20000308E
:1010A800D1000030D0000030CF0008000130DB361E
:1010B800DA0CD90CD80C890B5B280130D300530803
:1010C800DC07031981285A2818305C02031C7E2883
:1010D8000030D2000030D1000030D0000030CF0006
:1010E80008000130D835D90DDA0DDB0D890B7628CB
:1010F8000130DC025C08031D7528570803198F2886
:10110800D809D909DA09DB09D80A0319D90A031950
:10111800DA0A0319DB0A5B08D2005A08D100590819
:10112800D0005808CF00080020002008A600210899
:10113800A7002208A8000310270D280DA9002908D8
:10114800AF002F08031DB1280030A3000030A20013
:101158000030A1000030A00008002308A6002408E1
:10116800A7002508A8000310270D280DA9002908A5
:10117800AE002E08031DC9280030A3000030A200CD
:101188000030A1000030A0000800A117FF30A00522
:10119800FF30A1050030A205A417FF30A305FF30DA
:1011A800A4050030A5050030AD000030AC000030CB
:1011B800AB000030AA007F30AF0298302E07A6009F
:1011C8002608AF021830A6002608AE000130AA355E
:1011D800AB0DAC0DAD0D890BEB2825082202031DC4
:1011E800FB2824082102031DFB2823082002031CD6
:1011F80004292308A0022408A13B2508A23B2A149D
:101208000130A035A10DA20D890B05290130AE02D0
:10121800031DEA28AF1F2C292F08803A973E031890
:101228001E290030A3000030A2000030A1000030C9
:10123800A00008000130AD36AC0CAB0CAA0C890B31
:101248001F290130A6002608AF07031945291E29C2
:1012580018302F02031C42290030A3000030A200DE
:101268000030A1000030A00008000130AA35AB0D05
:10127800AC0DAD0D890B3A290130AF022F08031DC3
:1012880039292D08A3002C08A2002B08A1002A0840
:10129800A000080093317E2389318B170B17273064
:1012A8002000E7009830E80080313A2089319331F6
:1012B800102389312000ED006D082100C500313070
:1012C8004506031DB529C6302000ED006D08A700AE
:1012D80000309431EE248931003A0319182AC730B6
:1012E8002000ED006D08A70002309431EE2489310A
:1012F800210047082000ED000630ED36890B8129D2
:101308006D08EE006E082100C70047082000ED00B8
:10131800EE016D08B0006E08B1001930B20000305F
:10132800B3009331D8238931200031082100C4004B
:10133800200030082100C300BF302000E7009830AB
:10134800E800210046082000ED00EE016D08E900E4
:101358006E08EA00210044082000EC002100430840
:101368000D2A323021004506031D102A3D309331E5
:101378006A238931200021082100C20020002008AA
:101388002100C100B0302000D4004530D500C43061
:10139800D6006A30B6009C30B7003F30B800210054
:1013A80042082000A900210041082000A80093312C
:1013B8009323893120002808B9002908BA002A088F
:1013C800BB0097314C27893120003608D7003708F1
:1013D800D8003808D9008A312622893120005408DB
:1013E8002100BE00200055082100BF00200056083B
:1013F8002100C000DE302000E7009830E80021001E
:101408003E082000E90021003F082000EA002100F2
:1014180040082000EB00152AFB302000E700983038
:10142800E80080313A20893103302000EE008A300C
:10143800ED005530890B1E2AED0B1E2AEE0B1E2AD5
:101448000032532920005408DA005508DB005608FA
:10145800DC0003105B0D5C0DDD005D08E000570843
:10146800DA005808DB005908DC0003105B0D5C0D3E
:10147800DD005D08DF00600803194E2A5F0860027E
:101488000318552A6003FF3A5F07DA0019305A0239
:10149800031C552A5708D4005808D5005908D60007
:1014A80008005F080319080060085F020318642A2F
:1014B8005F03FF3A6007DA0019305A020318080080
:1014C8000630DA005A08DE00D61BDE17D91B5E1775
:1014D800D517FF30D405FF30D5050030D605D8170D
:1014E800FF30D705FF30D8050030D9055F08600206
:1014F8000318A02A0130D735D80DD90D890B7F2ABA
:101508000130DF025F08600603199B2A0130DE0202
:101518005E08073903199B2A7E2A0130D636D50C76
:10152800D40C890B922A0130DA005A08E0076008C7
:101538005F060319C52A912A60085F020318C52AA5
:101548000130D435D50DD60D890BA52A0130E0021E
:101558005F0860060319C12A0130DE025E080739F8
:101568000319C12AA42A0130D936D80CD70C890B03
:10157800B82A0130DA005A08DF0760085F06031D41
:10158800B72ADE1FD72AFF30D406FF30D506FF3032
:10159800D6060130D407003003180130D5070030D3
:1015A80003180130D6075E1FE92AFF30D706FF303F
:1015B800D806FF30D9060130D707003003180130AC
:1015C800D807003003180130D907DE015408D707BF
:1015D8005508D83D5608D93DD91F042BFF30D706EA
:1015E800FF30D806FF30D9060130D707003003187E
:1015F8000130D807003003180130D907DE01DE0AB0
:101608005708A0005808A1005908A2006008DA008D
:101618005A08A3005E08DB005B08A4009631E726A1
:1016280020002008D4002108D5002208D600080090
:101638002E000F1123009A1F492C9A13F2017008EB
:10164800023E860087010108860087018101810A20
:10165800F00108002100D21808005108F9007908A3
:10166800F0005108860087010108F9007908D800C0
:10167800510886008701413FF1000330F9007908DD
:10168800D1075108EC3A031D4D2BE930F9007908D0
:10169800D1005210510850060319D21423001B140C
:1016A8000230F9007908F200080023009B14023088
:1016B800F9007908F200080023001B1F6C2B013089
:1016C800F90079082100D40704308731E927080098
:1016D8007608FA007508F900FA36F90C790823003B
:1016E8009600751C7C2B0B30F9007908F200080075
:1016F8000330F9007908F200080023001B1F8D2B26
:101708000130F90079082100D40704308731E9272E
:1017180008009B147608FA007508F9007A08F900A1
:10172800FA0106307905FB0000307A05FC00F0303C
:101738007B04F50000307C04F60075142100D50107
:10174800D50A0230F9007908F20008002100550393
:101758000319BF2B710886008701403FF500413F00
:10176800F600710886008701433FD700710886009C
:101778008701423FD600750823009600751CC92BC7
:101788000530F9007908F20008000330F9007908FB
:10179800F200080023001B1FDC2B0130F900790838
:1017A8002100D40723001B1305308731E9270800DF
:1017B80001302100D602560A031DF52B0430F9002A
:1017C8007908F1070130D802031DEE2B003087316C
:1017D800E927080023009B140230F9007908F20079
:1017E8000800210057088600870101082300960099
:1017F8000130F90079082100D707080023001B1FD2
:10180800102C0130F90079082100D4070430873101
:10181800E92723001B1308009B150830F9007908F5
:10182800F20008000830F9007908F20023009B153F
:10183800080023001608F9002100570886008701D0
:10184800790881000130F9007908D7070130D602FC
:101858000319352C23009B120630F9007908F20091
:10186800392C23009B168831002023001B16080002
:1018780000308731E92708000130F9007908210094
:10188800D40706308731E9270800720884000C3035
:1018980004020318402C90310435003E82000800F1
:1018A8002000D3006E305302031C152D0A30A70008
:1018B8000030A8005308C900CA014908A2004A0814
:1018C800A3006430A0000030A1009531A9258C3117
:1018D80020002108AA002008A9009531EF258C31A5
:1018E80020002708093EB0000030283DB100033031
:1018F800B2000030B3009331D8238C312000310876
:10190800850030088400003084079830853D003F0A
:10191800B600013FB700023FB8006430A7000030AE
:10192800A8005308CB00CC014B08A9004C08AA001A
:101938009531EF258C3120002708123EB000003089
:10194800283DB1000330B2000030B3009331D823F2
:101958008C3120003108850030088400003084076D
:101968009830853D003FB900013FBA00023FBB00F7
:1019780097314C278C3120003608D0003708D10029
:101988003808D2005308C900CA014908A2004A0809
:10199800A3000A30A0000030A1009531A9258C31A0
:1019A80020002108B1002008B0000330B200003048
:1019B800B3009331D8238C312000310885003008DA
:1019C8008400003084079830853D003FB600013F11
:1019D800B700023FB8005008B9005108BA005208D1
:1019E800BB0097314C278C3120003608CD003708D2
:1019F800CE003808CF000030B6000030B7003F30C6
:101A0800B8004D08B9004E08BA004F08BB0097311E
:101A18004C2720003608C6003708C7003808C80019
:101A280008000B305302031C8D2D5308C900CA014E
:101A38004908A2004A08A3000A30A0000030A1000B
:101A48009531A9258C3120002108B1002008B0006B
:101A58000330B2000030B3009331D8238C3120001A
:101A68003108850030088400003084079830853DAF
:101A7800003FB600013FB700023FB8000A30A70098
:101A88000030A8005308CB00CC014B08A9004C0833
:101A9800AA009531EF258C3120002708093EB000B7
:101AA8000030283DB1000330B2000030B30093315C
:101AB800D8238C312000310885003008840000309C
:101AC80084079830853D003FB900013FBA00023FC6
:101AD800BB0097314C278C3120003608D0003708DE
:101AE800D1003808D2000030B6000030B7003F30CF
:101AF800B8005008B9005108BA005208BB00973125
:101B08004C2720003608C6003708C7003808C80028
:101B180008000030B6000030B7003F30B800530866
:101B2800C900CA014908B0004A08B1000330B20030
:101B38000030B3009331D8238C3120003108850060
:101B480030088400003084079830853D003FB90094
:101B5800013FBA00023FBB0097314C2720003608EE
:101B6800C6003708C7003808C80008002000CE00A3
:101B7800CE1FE02ECE09CE0A4E08803A123E031C34
:101B8800642E0A30A7000030A8004E08A200A30166
:101B9800A21BA3036430A0000030A1009531A92541
:101BA8008D3120002108AA002008A9009531EF25D1
:101BB8008D3120002708093EB0000030283DB100D3
:101BC8000330B2000030B3009331D8238D312000A8
:101BD8003108850030088400003084079830853D3E
:101BE800003FB600013FB700023FB8006430A700CD
:101BF8000030A8004E08A900AA01A91BAA03953124
:101C0800EF258D3120002708123EB0000030283D16
:101C1800B1000330B2000030B3009331D8238D31C6
:101C2800200031088500300884000030840798308F
:101C3800853D003FB900013FBA00023FBB00973124
:101C48004C278D3120003608CB003708CC003808E7
:101C5800CD004E08A200A301A21BA3030A30A000D6
:101C68000030A1009531A9258D3120002108B1004F
:101C78002008B0000330B2000030B3009331D823FD
:101C88008D31200031088500300884000030840739
:101C98009830853D003FB600013FB700023FB800CD
:101CA8004B08B9004C08BA004D08BB0097314C27C7
:101CB80020003608C6003708C7003808C8000800E2
:101CC8004E08803A753E031CC32E4E08A200A3019D
:101CD800A21BA3030A30A0000030A1009531A9255A
:101CE8008D3120002108B1002008B0000330B20077
:101CF8000030B3009331D8238D312000310885009E
:101D080030088400003084079830853D003FB600D5
:101D1800013FB700023FB8000A30A7000030A80012
:101D28004E08A900AA01A91BAA039531EF258D31F8
:101D380020002708093EB0000030283DB1000330DC
:101D4800B2000030B3009331D8238D312000310820
:101D5800850030088400003084079830853D003FB6
:101D6800B900013FBA00023FBB0097314C27200061
:101D78003608C6003708C7003808C80008004E08EB
:101D8800C900CA014908B0004A08B1000330B200CE
:101D98000030B3009331D823200031088500300883
:101DA8008400003084079830853D003FC600013F1D
:101DB800C700023FC80008004E08803A123E031CC4
:101DC800842F0A30A7000030A8004E08A200A30103
:101DD800A21BA3036430A0000030A1009531A925FF
:101DE8008D3120002108AA002008A9009531EF258F
:101DF8008D3120002708093EB0000030283DB10091
:101E08000330B2000030B3009331D8238D31200065
:101E18003108850030088400983084079830853D63
:101E2800003FB600013FB700023FB8006430A7008A
:101E38000030A8004E08A900AA01A91BAA039531E1
:101E4800EF258D3120002708123EB0000030283DD4
:101E5800B1000330B2000030B3009331D8238D3184
:101E680020003108850030088400983084079830B5
:101E7800853D003FB900013FBA00023FBB009731E2
:101E88004C278D3120003608CB003708CC003808A5
:101E9800CD004E08A200A301A21BA3030A30A00094
:101EA8000030A1009531A9258D3120002108B1000D
:101EB8002008B0000330B2000030B3009331D823BB
:101EC8008D3120003108850030088400983084075F
:101ED8009830853D003FB600013FB700023FB8008B
:101EE8004B08B9004C08BA004D08BB0097314C2785
:101EF80020003608C6003708C7003808C8000800A0
:101F08004E08803A753E031CE32F4E08A200A30139
:101F1800A21BA3030A30A0000030A1009531A92517
:101F28008D3120002108B1002008B0000330B20034
:101F38000030B3009331D8238D312000310885005B
:101F480030088400983084079830853D003FB600FB
:101F5800013FB700023FB8000A30A7000030A800D0
:101F68004E08A900AA01A91BAA039531EF258D31B6
:101F780020002708093EB0000030283DB10003309A
:101F8800B2000030B3009331D8238D3120003108DE
:101F9800850030088400983084079830853D003FDC
:101FA800B900013FBA00023FBB0097314C2720001F
:101FB8003608C6003708C7003808C80008004E08A9
:101FC800C900CA014908B0004A08B1000330B2008C
:101FD8000030B3009331D823200031088500300841
:101FE8008400983084079830853D003FC600013F43
:101FF800C700023FC80008008B312E2B8B31592BAC
:102008008B31AA2B8B31CE2B8C313C2C8C31022C72
:102018008C31162C8C313C2C8C311D2C8C31402C65
:082028008B31602B8B31812B01
:10261A002E008F1108009431112408002030320056
:10262A008C0008002000A100210893313E230800F5
:10263A00640080010131890B1E2B00342F009601A2
:10264A009701980199019A019B010800200022082C
:10265A0021042004031908008030A2060800623011
:10266A0031008D008F0191010230930020309200D9
:10267A0008002000A0002E000F1E402B200020087A
:10268A0022009A0008002000A100A0013A3021028D
:10269A000318552B30302102031C552BA001A00A28
:1026AA00200C08002E009912083022009F0090305A
:1026BA009D0024309E0019309B009C01F4012000EB
:1026CA00EF01F3012E00991608002000A300230849
:1026DA0021009E00931713131314000021001318EE
:1026EA00732B0D082000A10021000C082000A00077
:1026FA0008009331232393319431BF2493319331CA
:10270A00342393319331F423933193311323933147
:10271A009331A823933193315723080020002808C6
:10272A00A0002908A100A2018E30AB002B08A3004B
:10273A00A4019631E72620002008A8002108A90054
:10274A002208AA00080022008E018F01900191013F
:10275A00920193018D013D3021009E009B0194015D
:10276A009501960197019A01990198019430930075
:10277A00080022009D1CC32B1D121D161908F70004
:10278A007408C83E86008701770881000130F70087
:10279A007708F407083074020318F4010130F700CF
:1027AA007708F30708002000B401B501301CE12BBB
:1027BA003208B4073308B53D0130B235B30D890B81
:1027CA00E22B0130B136B00C890BE72B300831040B
:1027DA00031DDB2B3508B1003408B0000800E930CE
:1027EA002000A00020082100D100E9302000A0002C
:1027FA0020082100D000D2145210D401C030230086
:10280A00990028309A009C01043097002E000F117D
:10281A008F111915991508002000A10173080319D1
:10282A00132C20006F08C83E860087010108A0000B
:10283A002008A1000130A0002008EF0708306F022D
:10284A000318EF012E0099120130F30299162000A5
:10285A002108080020006308620461040319372C68
:10286A008030E3066408D4006508D5006608D600FF
:10287A006108D7006208D8006308D9008A31262285
:10288A0020005408E1005508E2005608E300080059
:10289A002000A6002308A5002208A400A435A50D3F
:1028AA002608860087012408C03F2508C13F210861
:1028BA00A4002608023E8600870124088100200819
:1028CA00A4002608033E8600870124088100080028
:1028DA002000A6002308A5002208A400A435A50DFF
:1028EA002608860087012408C03F2508C13F26081C
:1028FA0086008701013081044131003081042108BA
:10290A00A4002608023E86008701240881002008C8
:10291A00A4002608033E86008701240881000800D7
:10292A008E302000AC002C08AD00FF302B050319B7
:10293A00AA2C0130AB36AA0CA90CA80C890B9F2C27
:10294A000130AC002C08AD079A2C2808A0002908F1
:10295A00A1002A08A2002D08AC002C08A300A4019B
:10296A009631E72620002008A8002108A90022089D
:10297A00AA0008002000960197019801FF309100F3
:10298A00FF309200FE309300E4303E00CE00FF306C
:10299A00C300FF30B800E501C401B901CF01BA0193
:1029AA00C5011830D0001030A0003D004B08E039B6
:1029BA001138CB0017303E00A3001630A4003D00AA
:1029CA004908E0391338C9004808E0391438C80002
:1029DA0008002000AA000230A8002808AB002A300C
:1029EA00A8002808A000A101A10A3830A2000030DE
:1029FA00A300D93094314D24943120002708A8002F
:102A0A002808A000A101A10A3830A2000030A300C2
:102A1A00DD3094316D249431D9302000A800280883
:102A2A00A0002B30A9002908A100023096314126C6
:102A3A009431023020002B0603191E2D2B08031D8A
:102A4A00282D01300800003008002000A21F412D67
:102A5A002009A6002109A7002209A800A60A03192D
:102A6A00A70A0319A80A00302607A0000030273D4C
:102A7A00A1008030283DA200A51F572D2309A600DA
:102A8A002409A7002509A800A60A0319A70A0319F9
:102A9A00A80A00302607A3000030273DA400803092
:102AAA00283DA5008030A2068030A506250822020E
:102ABA00031D080024082102031D08002308200220
:102ACA0008002000310830042F042E040319A02D19
:102ADA00B701B70AB11B7D2D0130AE35AF0DB00D70
:102AEA00B10D890B722D0130B6003608B7076F2D6C
:102AFA0031083502031D8B2D30083402031D8B2D3E
:102B0A002F083302031D8B2D2E083202031C952D2C
:102B1A002E08B2022F08B33B3008B43B3108B53B4C
:102B2A000130B136B00CAF0CAE0C890B962D0130CA
:102B3A00B702031D7D2D3508B1003408B0003308F3
:102B4A00AF003208AE0008002000A601A31FB42D72
:102B5A00A209A309A20A0319A30AA601A60AA11F88
:102B6A00BB2DA009A109A00A0319A10A2008210462
:102B7A000319E22DA501A50AA11BCD2D0130A0350F
:102B8A00A10D890BC42D0130A4002408A507C12D6D
:102B9A0021082302031DD32D20082202031CD92D4C
:102BAA002008A2022108A33B0130A136A00C890B00
:102BBA00DA2D0130A502031DCD2D26080319EA2DB1
:102BCA00A209A309A20A0319A30A2308A100220839
:102BDA00A00008002000AD01A81FFA2DA709A80926
:102BEA00A70A0319A80AAD01AD0AAA1F052EA90949
:102BFA00AA09A90A0319AA0A0130AB002B08AD06D3
:102C0A00AE01AF01270828040319342EAC01AC0A1F
:102C1A00A81B192E0130A735A80D890B102E0130DB
:102C2A00AB002B08AC070D2E0130AE35AF0D890B6A
:102C3A001A2E28082A02031D242E27082902031CFB
:102C4A002B2E2708A9022808AA3B2E140130A836E1
:102C5A00A70C890B2C2E0130AC02031D192E2D084E
:102C6A0003193C2EAE09AF09AE0A0319AF0A2F08A1
:102C7A00A8002E08A70008002000A300210052186F
:102C8A00802E02302000A200210886008701220837
:102C9A0081002008A2002100500A86008701200036
:102CAA00220881002308A20021005008860087011B
:102CBA002000220881002108A20021005008023EBB
:102CCA00860087012000220881000330A200220822
:102CDA002100D0075008EC3A031D792EE930200074
:102CEA00A20022082100D000D21051085006031D6C
:102CFA00862E5214862E2000210886008701810123
:102D0A00810A200021088600870102300106031D7E
:102D1A0008007208031D8E2E2E000F1508000030C1
:102D2A002000AC000030AB000030AA000030A9003F
:102D3A0023082204210420040319DE2EAD01AD0A62
:102D4A00A31BB32E0130A035A10DA20DA30D890B33
:102D5A00A82E0130A8002808AD07A52E0130A935F4
:102D6A00AA0DAB0DAC0D890BB42E23082702031D47
:102D7A00C82E22082602031DC82E21082502031D7B
:102D8A00C82E20082402031CD32E2008A4022108DE
:102D9A00A53B2208A63B2308A73B29140130A336EA
:102DAA00A20CA10CA00C890BD42E0130AD02031D7C
:102DBA00B32E2C08A3002B08A2002A08A100290878
:102DCA00A0000800200023080319F02E220821047D
:102DDA002004031D012F0030A0000030A1000030A4
:102DEA00A20008000130A5002508A3070130A23679
:102DFA00A10CA00C890BFC2EFE30220503191A2FF8
:102E0A00F72E0130A5002508A3070130A0070030DE
:102E1A0003180130A107003003180130A20701305E
:102E2A00A236A10CA00C890B152FFF30220503191D
:102E3A00272F062F0130A3020130A035A10DA20DC4
:102E4A00890B222FA11B2D2F0230230203181F2FBB
:102E5A002318352FFF30A0057F30A105FF30A205CA
:102E6A000310A30C2308A500A601A7011030A5355D
:102E7A00A60DA70D890B3C2F2508A0042608A1043E
:102E8A002708A204240803190800A2170800200032
:102E9A003608BC003708BD003808BE0003103D0DD7
:102EAA003E0DBF003F08C0004008031D632F0030DD
:102EBA00B6000030B7000030B80008003908BC007E
:102ECA003A08BD003B08BE0003103D0D3E0DBF0091
:102EDA003F08C5004508031D792F0030B6000030B1
:102EEA00B7000030B800080045087B3EBC003C082B
:102EFA00C0073608BC003708BD003808BE001030CD
:102F0A00BE36BD0CBC0C890B852F3C08BF003F08A0
:102F1A00C5003908BC003A08BD003B08BE001030A5
:102F2A00BE36BD0CBC0C890B952F3C08BF003F0870
:102F3A00C5068030BC003C08C505B717BA17FF3074
:102F4A00B905FF30BA050030BB050030C1000030BA
:102F5A00C2000030C3000730BC003C08C400361C65
:102F6A00BC2F3908C1073A08C23D3B08C33D0130AE
:102F7A00B836B70CB60C890BBD2F0130B935BA0D6E
:102F8A00BB0D890BC32F0130C402031DB42F0930B6
:102F9A00BC003C08C400361CD82F3908C1073A08BF
:102FAA00C23D3B08C33D0130B836B70CB60C890B9D
:102FBA00D92F0130C336C20CC10C890BDF2F013067
:102FCA00C402031DD02F4108A0004208A1004308F3
:102FDA00A2004008BC003C08A3004508BD003D080B
:102FEA00A4009631E72620002008B6002108B70081
:102FFA002208B8000800003480343F34CD34CC3481
:10300A003D34D73423343C34123483343A34B7341D
:10301A00D1343834C63427343734383486343534E6
:10302A00C034D6343334CC342B343234703489340B
:10303A003034E734DB342E34E5343C341E34423445
:10304A00A2340D340C344D344534443449344334B9
:10305A0049344F344E3420344434453420345434C3
:10306A0045344D3450344534523441345434553453
:10307A00523441340A340A3431343A342034543420
:10308A0065346D3470346534723461347434753433
:10309A00723461342034653478347434653472346B
:1030AA006E3461340A3432343A3420345434653458
:1030BA006D347034653472346134743475347234F6
:1030CA006134203469346E347434653472346E3445
:1030DA0061340A34003401340034003400340A34D0
:1030EA000034003400346434003400340034E834EA
:1030FA000334003400341034273400340034A0344C
:10310A00863401340034403442340F34003480347D
:10311A009634983400340034E134F53405340034FC
:10312A00CA349A343B34003480343F340034203477
:10313A0041340034C834423400347A34443440349C
:10314A001C3446345034C334473424347434493438
:10315A00973418344B34BC34BE344C346B346E342C
:10316A004E340334153450347934AD346034F33486
:10317A00493471340A34543465346D3470346534E6
:10318A007234613474347534723461342034653481
:10319A0078347434653472346E3461343A34203499
:1031AA00253464342E3425346434203443340A34C8
:1031BA0000340A34543465346D34703465347234EE
:1031CA0061347434753472346134203469346E3441
:1031DA007434653472346E3461343A3420342534AC
:1031EA0032342E34323466340A34003407340A3422
:1031FA002A342A342A34203443344F344434493468
:10320A0047344F3420344E344F342034563441340A
:10321A004C34493444344F3420342A342A342A343E
:04322A000A3400342E
:020000040001F9
:0A000E00EC3FFF3F9F3FFF3FFF3F25
:00000001FF
