:020000040000FA
:08000000803102288731FD2F39
:100F34008731BF27873163009D2F803032008E00B8
:100F440010308F0008002F00960197019801990135
:100F54009A019B0108009230330090009101033004
:100F64009200053093000800623031008D008F013B
:100F7400910102309300920108008731A52787313F
:100F84008731CE2787318731B627873187319F272D
:100F940087318731AD270800200096019701980119
:100FA400F0309100FF309200FF309300FF303E009C
:100FB400CE00FF30C300F030B800E501C401B90130
:100FC400CF01BA01C501D001FF30BB00FF30C6001C
:100FD400FF30D100FF30BC00FF30C700FF30D2002B
:100FE4000830E80012309300123091001230920061
:0C0FF400123090000800200087319A2F76
:020000040001F9
:0A000E00EC3FFF3F9F3FFF3FFF3F25
:00000001FF
