:04000000803116280D
:100008007E14803120007F08F0000B1F11282E007D
:1000180097188D1C11288031632070082000FF007C
:100028007E100900803118287E10200080316F284A
:1000380022008E018F0190010230910092019301FC
:100048008D01043021009E009B019401023095002F
:100058001630960097019A0199019801D4309300BF
:100068002E008D1097149330F1000030F20080318B
:10007800992008002000960197019801F03091001E
:10008800FF309200FF309300FF303E00CE00FF307B
:10009800C300F030B800E501C401B901CF01BA01CD
:1000A800C501D001080080318420803180313E2094
:1000B800803180317A20803180311C2008002E0068
:1000C8008D10730874040319080074088A007308F3
:1000D8000A00803108008031572080318B170B17B8
:1000E800043080318C208031630078286230310000
:1000F8008D008F019101023093002030920008009A
:100108002F0096019701980199019A019B01080017
:10011800F100710821009E009317131408002000B5
:10012800161496141615961508007208F40071082E
:04013800F3000800C8
:020000040001F9
:0A000E00EC3FFF3F9F3FFF3FFF3F25
:00000001FF
