:04000000803116280D
:100008007E14803120007F08F1000B1F11282E007C
:1000180097188D1C11288031622071082000FF007C
:100028007E100900803118287E1020008031792840
:1000380022008E018F0190010130910092019301FD
:100048008D0121009E019B019401033095005630DB
:10005800960097019A0199019801D43093002E00D7
:100068008D1097146E30F2000030F30080319C2020
:1000780008002000960197019801FE309100FF309A
:100088009200FF309300FF303E00CE00FF30C300E7
:10009800FE30B800E501C401B901CF01BA01C501BC
:1000A800D001080080318D20803180313D208031A1
:1000B80080318320803180311C2008002E008D1073
:1000C800740875040319080075088A0074080A0082
:1000D80080310800200016080139013EF00016089A
:1000E8007006FE397006960008008031562080316F
:1000F8008B170B17063080319520803182286230AB
:1001080031008D008F019101023093002030920060
:1001180008002F0096019701980199019A019B0107
:100128000800F200720821009E00931713140800BB
:0A0138007308F5007208F4000800D7
:020000040001F9
:0A000E00EC3FFF3F9F3FFF3FFF3F25
:00000001FF
