:08000000803102288731FD2F39
:100E3C0020009E1708002E000C0E890C01390800AA
:100E4C0072082B0091007108900070088F00080048
:100E5C00623031008D008F019101023093009201BC
:100E6C0008002B00920193018E018D01910103303A
:100E7C0090009B308F009217080020009E01483094
:100E8C009F00F3309D009C012E008C1287311E2791
:100E9C00080087316C27873187312E2787318731BE
:100EAC0037278731873143270800F0002E008C123A
:100EBC0087311E278731873121278731003A031963
:100ECC00612F0130F002031908005C2F20009601FD
:100EDC0097019801FF309100FF3092007F30930012
:100EEC007F303E00CE00FF30C300DF30B800E5019C
:100EFC00C401B901CF01BA01C501D00100308B1B6F
:100F0C000130F0008B1355303D008F00AA308F005C
:100F1C000F1019303E00A70055303D008F00AA304D
:100F2C008F000F14701C9C2F8B1708008B1308005C
:100F3C0087314F2787312B00910190018F01F801E8
:100F4C0020008C1EE62FA12F7808F300F401F33556
:100F5C00F40DF335F40D0030730784008830743DC4
:100F6C008500003FF000013FF100023FF2008731A5
:100F7C00262787317808F300F401F335F40DF335A7
:100F8C00F40D7308033EF5000030743DF60000309C
:100F9C00750784008830763D8500000887315B2713
:100FAC0087310130F3007308F8072B009101900191
:100FBC008F010430F3003E30890BE22FF30BE22F4C
:100FCC007808F300F401F335F40DF335F40D7308E0
:100FDC00033EF5000030743DF600003075078400C8
:100FEC008830763D850012000319A12FAA2F20000E
:100FFC0087319E2F703403340034023400340034B3
:10100C0000340234173404340034033470340334A1
:10101C000034023470340334003401349734043413
:10102C00003402347034033400340234103403348A
:10103C00003402347034033400340234003400348D
:10104C000034023427340534003403347034033450
:10105C0000340234703403340034013475340534F4
:10106C000034023427340534003402341734043489
:10107C000034023470340334003402342734053421
:10108C0000340234E0340634003402347034033457
:10109C00003401341034033400340234103403347B
:1010AC00003401349334023400340234DC3403341D
:1010BC000034023470340334003406340034003409
:0410CC0000340034B8
:020000040001F9
:0A000E00EC3FFF3B9F3FFF3FFF3F29
:00000001FF
